S010000047534C555F4150502E7372656399
S214482000A55AA55A01000000FFFFFFFF0040480000
S214482010FFFFFFFF00404800FFFFFFFF004048006B
S214482020FFFFFFFF0000000000404800FFFFFFFFE3
S214482030FFFFFFFFFFFFFFFFFFFFFFFFFFFFFFFF63
S214482040FFFFFFFFFFFFFFFFFFFFFFFFFFFFFFFF53
S214482050FFFFFFFFFFFFFFFFFFFFFFFFFFFFFFFF43
S214482060FFFFFFFFFFFFFFFFFFFFFFFFFFFFFFFF33
S2144840000000012021444800697148006B7148004F
S2144840106D7148006F7148007171480000000000DB
S2144840200000000000000000000000007371480017
S21448403075714800000000007771480079714800A3
S2144840407B7148007B7148007B7148007B71480053
S2144840507B7148007B7148007B7148007B71480043
S2144840607B7148007B7148007B7148007B71480033
S2144840707B7148007B7148007B7148007B71480023
S2144844007B7148007B71480000BF00BF00BF00BFFB
S214484410FFF7FABF000000000000000000000000A0
S21448442072B64FF000004FF000014FF000024FF018
S21448443000034FF000044FF000054FF000064FF021
S21448444000074FF0640001380028FCDC5C4801682F
S2144844504FF0807201EA0201002924D159480168C8
S2144844604FF0807241EA02010160574801684FF0F8
S214484470010241EA02010160544845F6F021016014
S2144844804AF20F510160504801684FF0010201EAB4
S21448449002010129F7D04A4801684FF0807201EAC4
S2144844A002010029F7D04A484CF2205101604DF6E7
S2144844B02811016047484849016048484849016012
S2144844C04849086820F0040040F001000860464962
S2144844D0086820F0040040F00100086043480028BF
S2144844E014D0434801684FF0010201EA020100294E
S2144844F002D0404A404B01E0404A3F4B9A4205DAD8
S21448450000200021E2E802019A42FBDB3C480028F2
S21448451016D03C4A12684FF07F4302EA03024FEA3D
S2144845201262092A02D1384A384B01E0364A384BDB
S2144845309A4205DA00200021E2E802019A42FBDBB3
S2144845403448002816D02F4A12684FF47F0302EAF0
S21448455003024FEA1242082A02D12F4A2F4B01E0A3
S2144845602D4A2F4B9A4205DA00200021E2E8020144
S2144845709A42FBDB2B4800684FF05A318842F9D004
S214484580294880F3088803F03BF9284801684FF02B
S2144845900000814202D002F01BFF01E002F04CFE10
S2144845A00E482349016002F0ABFF62B602F09AFF5C
S2144845B002F030FC00BFFEE7AFF30080AFF30080A8
S2144845C010C32D4030C32D4004C32D4000C02D409D
S2144845D01000274000002740400000FF08ED00E09C
S2144845E00040480094EF00E090EF00E00100000033
S2144845F000C02840000040200080412000004020A5
S21448460001000000140026400000002000000220A0
S214484610000001200100000000000000000001002A
S21448462000800000900B4020000001200400264037
S2144846300000002082B003468DF807309DF807300A
S214484640DBB2002B01D100BEFDE700BF02B07047C9
S21448465082B003468DF807309DF80730DBB2002B52
S21448466001D100BEFDE700BF02B0704710B4EFF3BB
S21448467010831C46234618465DF8044B704710B412
S214484680EFF310831C46234618465DF8044B7047E4
S21448469010B4EFF310831C46234618465DF8044BC7
S2144846A0704710B4EFF310831C46234618465DF84F
S2144846B0044B704710B4EFF310831C462346184645
S2144846C05DF8044B704710B4EFF310831C4623463E
S2144846D018465DF8044B704710B4EFF310831C4639
S2144846E0234618465DF8044B704782B003468DF85B
S2144846F007309DF80730DBB2002B01D100BEFDE73E
S21448470000BF02B0704782B003468DF807309DF868
S2144847100730DBB2002B01D100BEFDE700BF02B078
S214484720704782B003468DF807309DF80730DBB2F5
S214484730002B01D100BEFDE700BF02B07047000065
S21448474000B585B00023039303E000BF039B013305
S2144847500393039B2F4A9342F7D92F4805F072F9E3
S2144847600023029303E000BF029B01330293029B9F
S214484770284A9342F7D9002004F0AEF900200AF000
S21448478041FD26480AF020FCC1200AF0ACFC02F0A5
S21448479093FA00F08FFF034683F00103DBB2002B49
S2144847A002D000F01DFF01E000F09EFE00230193BA
S2144847B003E000BF019B01330193019B154A9342D6
S2144847C0F7D9174B1B68012B03D10E2002F07EFA4F
S2144847D0ECE7134B1B68022B03D10D2002F076FA48
S2144847E0E4E70F4B1B68032B03D10F2002F06EFA49
S2144847F0DCE70B4B1B68042B03D1112002F066FA4A
S214484800D4E7074B1B68052BD0D1122002F05EFA7E
S214484810CCE700BF3F420F0070584900C4584900D3
S214484820AC0D402000BF704700B587B0039002919A
S214484830019200930021029804F0D2F805900021D6
S214484840029804F0CDF80590059B002B01D0059BF7
S21448485025E00021029804F07BF90590059B002B83
S21448486005D104F0C7F90590059B012BF9D0059BA7
S214484870002B0FD10023019A0099039804F0DAF927
S2144848800590059B002B05D104F036FA0590059B4C
S214484890012BF9D00021029803F08CFF059B18469F
S2144848A007B05DF804FB00B585B00390029101920D
S2144848B0029A0199039804F03FFA0346184605B051
S2144848C05DF804FB38B510225349544801F0E8FC1B
S2144848D00346534A136010234F4A00214FF0805036
S2144848E0FFF7A2FF03464F4A136010224E494FF087
S2144848F08050FFF7D8FF03464C4A136010224C49B5
S214484900494801F0E0FC03464A4A136010224849E9
S214484910424802F011FC0346002B0CBF012300233B
S214484920DAB2454B1A70102244493C4801F0DEFC86
S2144849300346434A13601023404A01214148FFF783
S21448494073FF0346404A1360102240493D48FFF72C
S214484950AAFF03463E4A136010223E493B4801F0F0
S214484960D9FC03463C4A136010223A492B4802F0C9
S214484970E3FB0346002B0CBF01230023DAB2374B78
S2144849801A701021364800F023FF03461A46354B66
S2144849901A701E23344A3549314801F055FC0346FF
S2144849A0334A1360334A2E4B14460FCB84E80F0025
S2144849B0304B2D4A03F1100415460FCD0FC495E829
S2144849C00F0007C4238030232A4A02212A48FFF7CB
S2144849D02BFF0346294A1360302226492648FFF70C
S2144849E062FF0346264A13601E23264A2649214864
S2144849F001F040FC0346254A13601E2221491B4805
S214484A0002F09AFB0346002B0CBF01230023DAB2C0
S214484A101F4B1A7000BF38BD84004020680D4020E8
S214484A20380D40203C0D402094004020400D40204A
S214484A30A4004020440D402080004020B400402080
S214484A40480D4020002000104C0D4020C400402057
S214484A50500D4020D4004020540D40208100402076
S214484A60E400402082004020F40040202C514900B9
S214484A70580D402014014020004000105C0D402096
S214484A80600D40204401402024014020640D402011
S214484A908300402000B589B00390029101920093AC
S214484AA00021029803F09CFF0790079B002B01D03B
S214484AB0079B3BE00021029804F04AF80790079BC2
S214484AC0002B05D104F096F80790079B012BF9D0E8
S214484AD0002306931EE0009A069BD31A802B28BF15
S214484AE080230593039A069BD018019A069B1A447E
S214484AF00023059904F09EF80790079B002B05D1E4
S214484B0004F0FAF80790079B012BF9D0069A059B04
S214484B1013440693079B002B03D1069A009B9A42A0
S214484B20D9D30021029803F045FE079B184609B0E2
S214484B305DF804FB00B585B0039002910192029A95
S214484B400199039804F0F8F80346184605B05DF84E
S214484B5004FB00B585B0354B0393002009F0DAFD19
S214484B6003468DF80B3010220021314802F0F4FA43
S214484B702F4B0C221A802E4B80225A802C4B122206
S214484B801A739DF80B201346DB009B1A1B01294A13
S214484B901344019370220021019802F0DDFA019B2C
S214484BA008330093019B4FF482721A60009B224A96
S214484BB01A601F4A009B5A60009B00229A60009B1E
S214484BC00022DA601D4A009B1A61009B00229A82E6
S214484BD0009B0022DA82009B10221A83009B4FF02B
S214484BE0FF32DA61009B4FF0FF321A649DF80B30B3
S214484BF0134A1B01134400221A609DF80B30104AD2
S214484C001B0113440C330F4A1A609DF80B301B01E6
S214484C100B4A1A449DF80B10019B002009F022FE0F
S214484C200390039B184605B05DF804FBF1D4D633D1
S214484C302805402068034020030002004C514900E4
S214484C40280340208096980000B587B001900091D0
S214484C502F4B0593002009F05DFD03468DF8133071
S214484C602C4B10221A609DF813201346DB009B1A23
S214484C701B01294A1344039370220021039802F02B
S214484C806BFA039B08330293039B244A1A60029BE1
S214484C9000221A70029B00225A70029B01229A70C8
S214484CA0029B0022DA70029B11221A71029B102284
S214484CB01A72029B1A4A1A61029B009A5A61019A12
S214484CC0029B9A61134A029BDA61164A029B1A6251
S214484CD09DF81330144A1B01134400221A609DF8AD
S214484CE01330114A1B0113440C33104A1A609DF8BE
S214484CF013301B010C4A1A449DF81310039B0020DE
S214484D0009F0B0FD0590059B184607B05DF804FB12
S214484D10F1D4D63374014020680340200102A50030
S214484D200300020064014020280340208096980033
S214484D3000B589B003900291019200932F4B0793D8
S214484D40002009F0E7FC03468DF81B302C4A009BF0
S214484D5013609DF81B201346DB009B1A1B01294A4B
S214484D601344059370220021059802F0F5F9059B37
S214484D7008330493059B244A1A60049B00221A7041
S214484D80049B00225A70049B00229A70049B0022BF
S214484D90DA70049B11221A71049B10221A72049B23
S214484DA01A4A1A61049B029A5A61039A049B9A61AA
S214484DB0134A049BDA61019A049B1A629DF81B30D9
S214484DC0134A1B01134400221A609DF81B30104AF0
S214484DD01B0113440C330F4A1A609DF81B301B0105
S214484DE00B4A1A449DF81B10059B002009F03AFD13
S214484DF00790079B184609B05DF804FBF1D4D633F4
S214484E0038054020680340200102A5000300020040
S214484E10280340208096980030B583B0002301933D
S214484E2013E0019A3B4BA3FB0213DB081A2101FB54
S214484E3003F3D31ADBB24133D9B2374A019B134442
S214484E400A461A70019B01330193019B1F2BE8D930
S214484E50FFF77FFE0346314A136020212E48FFF7AE
S214484E60F3FE03462E4A13602E4B1B682E4A20211B
S214484E702948FFF75DFF03462C4A13602C4A264B09
S214484E8014461D460FCD0FC495E80F0084E80F0062
S214484E90274B254A03F1200413460FCB84E80F001E
S214484EA03023234A06212348FFF7F4FD0346224AC7
S214484EB0136030221E491F48FFF73CFE03461F4A30
S214484EC013601F4A1A4B144620330FCB84E80F0052
S214484ED010231B4A20211648FFF72AFF0346194A83
S214484EE01360154B1B68002B0AD1144B1B68002B0C
S214484EF006D1144B1B68144A934201D1012300E0A3
S214484F00002303F00103DAB2104B1A7000BF03B057
S214484F1030BD00BF4FECC44E18024020780D4020EC
S214484F207C0D40207401402064014020800D4020C4
S214484F305802402000C00010840D4020880D4020B4
S214484F40780140208C0D402033AAA5558801402082
S214484F5000B585B02B4B0393002009F0DBFB0346D6
S214484F608DF80B3040220021274802F0F5F89DF8CE
S214484F700B201346DB009B1A1B01244A134401935B
S214484F8070220021019802F0E7F8019B083300934D
S214484F90019B4FF483721A60009B1D4A1A60009B5F
S214484FA00C229A80009B4FF48072DA80009B8722FE
S214484FB01A74009B01225A74009B03221A75124ADF
S214484FC0009B9A619DF80B30124A1B01134400223D
S214484FD01A609DF80B300F4A1B0113440C330E4AD7
S214484FE01A609DF80B301B010A4A1A449DF80B10AC
S214484FF0019B002009F036FC0390039B184605B039
S2144850005DF804FBF1D4D6338C0140206803402079
S21448501000010200280340208096980000B587B01B
S21448502001900091364B0593002009F073FB034628
S2144850308DF81330334B20221A60334B20221A60E7
S2144850409DF813201346DB009B1A1B012F4A134476
S214485050039370220021039802F07EF8039B0833DE
S2144850600293039B40F206221A60029B00221A70A3
S214485070029B00225A70029B01229A70029B0022D1
S214485080DA70029B80221A71029B04221A72029BD3
S2144850901F4A1A61029B00221A75029B009A9A615F
S2144850A0019A029BDA61174A029B1A62164A029BC9
S2144850B05A62184A029B9A62174A029BDA629DF81D
S2144850C01330164A1B01134400221A609DF8133009
S2144850D0124A1B0113440C33114A1A609DF81330C8
S2144850E01B010E4A1A449DF81310039B002009F032
S2144850F0B9FB0590059B184607B05DF804FB00BF52
S214485100F1D4D6330C0240201002402068034020D9
S21448511000010200CC014020EC014020280340203A
S2144851208096980000B589B003900291019200934A
S214485130364B0793002009F0EDFA03468DF81B30EE
S214485140334A0A9B1360334A0C9B13609DF81B2016
S2144851501346DB009B1A1B012F4A13440593702203
S2144851600021059801F0F8FF059B08330493059B3A
S21448517040F206221A60049B00221A70049B002202
S2144851805A70049B00229A70049B0022DA70049B93
S21448519080221A71049B04221A72049B039A1A618D
S2144851A0049B00221A75049B019A9A61029A049BF2
S2144851B0DA61174A049B1A62164A049B5A62009A96
S2144851C0049B9A620B9A049BDA629DF81B30134A3A
S2144851D01B01134400221A609DF81B300F4A1B011E
S2144851E013440C330E4A1A609DF81B301B010B4AB9
S2144851F01A449DF81B10059B002009F033FB0790C6
S214485200079B184609B05DF804FB00BFF1D4D633B7
S2144852103C054020400540206803402028034020A5
S2144852208096980000B587B00190394B05930020CA
S21448523009F070FA03468DF81330102200213548DD
S21448524001F08AFF334B08221A80324B4FF48072A3
S2144852505A80304B88221A732E4B01225A739DF877
S21448526013201346DB009B1A1B012B4A1344039357
S21448527070220021039801F06FFF039B08330293C6
S214485280039B4FF482721A60029B244A1A60214A92
S214485290029B5A60019A029B9A60029B0022DA603F
S2144852A0029B00221A61029B40229A82029B00229D
S2144852B0DA82029B00221A83029B4FF0FF32DA61A1
S2144852C0029B4FF0FF321A64029B002283F85C2050
S2144852D09DF81330124A1B01134400221A609DF8A9
S2144852E013300F4A1B0113440C330E4A1A609DF8BC
S2144852F013301B010A4A1A449DF81310039B0020DA
S21448530009F0B0FA0590059B184607B05DF804FB0F
S214485310F1D4D633440540206803402000020200FA
S214485320280340208096980030B587B00023059320
S21448533013E0059A524BA3FB0213DB081A2101FB24
S21448534003F3D31ADBB26133D9B24E4A059B1344F2
S2144853500A461A70059B01330593059B1F2BE8D90F
S214485360FFF7F6FD0346484A136020214548FFF7F5
S21448537055FE0346454A1360454B1B68454A126826
S2144853800292454A01920093444B20223D494448A4
S214485390FFF7C8FE0346434A1360434A394B144650
S2144853A01D460FCD0FC495E80F0084E80F003E4B0E
S2144853B03E4A03F1200415460FCD0FC40FCD0FC447
S2144853C00FCD0FC495E80F0084E80F00364B334ADC
S2144853D003F1600415460FCD0FC495E80F0084E826
S2144853E00F00314B2C4A03F1800415460FCD0FC4ED
S2144853F095E80F0084E80F00A0232B4A07212C4885
S214485400FFF748FB03462B4A1360A0222649284844
S214485410FFF790FB0346284A13602848FFF702FF29
S2144854200346274A136020230293264B01932023E2
S2144854300093254B20221C492448FFF773FE034659
S214485440234A13601B4B1B68002B0FD11A4B1B6853
S214485450002B0BD11A4B1B681E4A934206D11C4B95
S2144854601B681C4A934201D1012300E0002303F045
S2144854700103DAB2184B1A7000BF07B030BD00BF40
S2144854804FECC44E38024020900D4020940D4020EA
S2144854900C02402010024020EC014020CC01402065
S2144854A000010200980D4020880240208C014020D0
S2144854B000E000109C0D4020A00D4020A80240208F
S2144854C0A40D402008034020E802402000020200C5
S2144854D0A80D402033AAA5551402402008B5FFF76A
S2144854E09BFC00BF08BD00BF00B583B012E000209B
S2144854F009F0A3FA03461A46314B1A80304B1B88EC
S2144855009BB203F48073002B09D12E4B1B68013BDA
S2144855102C4A13602B4B1B68002BE8D100E000BFD9
S214485520284B1B68002B47D02749002009F0A6F8CF
S2144855300346264A1360254B1B68002B03D0244B92
S21448554002221A6038E000238DF8073000F0BAF9D6
S2144855500346002B14BF01230023DBB28DF8073027
S21448556000F07CF903468DF80730194B01221A6083
S21448557000F0CDF803468DF807309DF80730DBB2CB
S214485580002B03D0124B03221A6002E0104B042271
S2144855901A6010210F4800F01BF903468DF80730B3
S2144855A00D4801F03BFC014620230C4A0A4800F00F
S2144855B0D3F903468DF8073000BF03B05DF804FB07
S2144855C0CE084020280E4020DC0540202C0E4020E7
S2144855D0AC0D4020A0054020B00D4020B805402026
S2144855E0184B0022C3F85823164B4FF0D852C3F82E
S2144855F00023154B154AC3F80021134B144AC3F829
S2144856000421114B1B68104A43F4807313600E4BF9
S2144856101B680D4A43F00103136000BF0A4B5B68E2
S21448562003F40043002BF9D0074B1B68064A23F0C7
S21448563001031360044B1B68034A23F4807313600A
S21448564000BF70470080264000C02E405555AAAA85
S214485650AAAA555500B587B0029101920093034611
S2144856608DF80F30104B0593059B009A1A60059BE2
S214485670BDF820201A81059B019ADA60029A059B9C
S2144856801A610A4B00221A60084B094ADA609DF8EC
S2144856900F00059B054A002109F0E4F80346184622
S2144856A007B05DF804FB00BFF405402058054020CD
S2144856B08096980000B585B000238DF80F304FF0DF
S2144856C000024FF00003CDE90023022302936B4605
S2144856D01A4608214FF0D85003F02EFB0290029B42
S2144856E0002B0ED1DDE90023B3F1FF3F08BFB2F12E
S2144856F0FF3F03D001238DF80F3002E000238DF8DA
S2144857000F309DF80F30184605B05DF804FB00B51D
S21448571085B0274A01AB92E8030083E80300254B8F
S2144857200393039B244A1A60039B01221A81039B16
S2144857300822DA60214A039B1A61214B00221A602C
S2144857401F4B204ADA60039B1D4A0021002009F0BF
S21448575089F803461C4A13601B4B1B681B4A934236
S21448576001D0002320E0BDF80620144B5B889A42FF
S21448577017D19DF80820114B1B799A4211D19DF8F4
S21448578009200E4B5B799A420BD1BDF80A200B4B89
S214485790DB889A4205D19DF80420084B1B789A422C
S2144857A001D0002300E00123184605B05DF804FB4D
S2144857B07C514900F40540200200A5009805402089
S2144857C05805402080969800D008402033AAA55512
S2144857D000B587B0019000911B4B05931B4B049373
S2144857E0002008F097FF03468DF80F3070220021FE
S2144857F0049801F0B1FC049B08330293029B0022F4
S2144858001A70019A029B9A60029B009A5A60049BFF
S2144858104FF440721A600E4B00221A600C4B0D4A29
S214485820DA609DF80F10049B094A002009F01AF820
S2144858300590059B084A934201D0002300E00123C7
S214485840184607B05DF804FBF1D4D633F40540207B
S214485850580540208096980033AAA55500B583B0D1
S214485860124B0193019B124A1A60019B02221A812D
S214485870019B0822DA600F4A019B1A610E4B0022F0
S2144858801A600D4B0D4ADA60019B0B4A0021002036
S21448589008F0E8FF0090009B094A934201D0002395
S2144858A000E00123184603B05DF804FBF4054020E9
S2144858B00200A500B0054020580540208096980074
S2144858C033AAA55500B585B01E4BA5221A700123EC
S2144858D08DF80F300BE09DF80F301A4A9B011344A1
S2144858E0A5221A709DF80F3001338DF80F309DF8B9
S2144858F00F30012BEFD9144B0293029B01221A60FA
S214485900029B14221A81029B8022DA600D4A029B6F
S2144859101A610E4B00221A600C4B0D4ADA60029B45
S2144859200A4A0021002008F09DFF0190019B094A81
S214485930934201D0002300E00123184605B05DF8E5
S21448594004FB00BFB4074020F4054020580540201B
S2144859508096980033AAA55500B589B00390029161
S21448596001928DF80330244A9DF803301370234B78
S2144859700793002008F0CEFE03468DF81B307022B1
S2144859800021079801F0E8FB079B1D4A1A60079B11
S21448599008330593059B00221A70059B029A5A60A5
S2144859A0059B04229A70019A059B1A61124A059B28
S2144859B0DA60039A059B9A60059B0022DA70059B7D
S2144859C000225A700F4B00221A600E4B0E4ADA60BD
S2144859D09DF81B10079B0B4A002008F043FF0490D5
S2144859E0049B0A4A934201D0002300E0012318464C
S2144859F009B05DF804FB00BFD8054020F4054020F8
S214485A000002A500580540208096980033AAA55560
S214485A1000B585B0214B0393002008F07BFE034673
S214485A208DF80B309DF80B201346DB009B1A1B01A4
S214485A301B4A1344019370220021019801F08CFB05
S214485A40019B08330093019B40F201121A60154AE5
S214485A50009B1A60144A009B5A609DF80B30134A04
S214485A601B01134400221A609DF80B300F4A1B0195
S214485A7013440C330E4A1A609DF80B301B010B4A30
S214485A801A449DF80B10019B002008F0EBFE03908B
S214485A90039B184605B05DF804FB00BFF1D4D63327
S214485AA0F4054020BC0D4020CC0D40205805402031
S214485AB08096980000B585B0354B0393002008F0D3
S214485AC029FE03468DF80B3010220021314801F09C
S214485AD043FB304B03221A802E4B80225A802D4B94
S214485AE012221A739DF80B201346DB009B1A1B01E3
S214485AF0294A1344019370220021019801F02CFB97
S214485B00019B08330093019B4FF482721A60009BF6
S214485B104FF400321A601F4A009B5A60009B0022CE
S214485B209A60009B0022DA601C4A009B1A61009B20
S214485B3000229A82009B0022DA82009B10221A8357
S214485B40009B4FF0FF32DA61009B4FF0FF321A6439
S214485B509DF80B30124A1B01134400221A609DF828
S214485B600B300F4A1B0113440C330E4A1A609DF83B
S214485B700B301B010A4A1A449DF80B10019B002063
S214485B8008F070FE0390039B184605B05DF804FBCA
S214485B90F1D4D633D4084020F40540205C5149005F
S214485BA0580540208096980000B585B0234B03934F
S214485BB0002008F0AFFD03468DF80B301022002178
S214485BC01F4801F0C9FA9DF80B201346DB009B1AC4
S214485BD01B011C4A1344019370220021019801F0CE
S214485BE0BBFA019B08330093019B174A1A60009B37
S214485BF04FF400321A60124A009B5A609DF80B30E8
S214485C00124A1B01134400221A609DF80B300F4AB3
S214485C101B0113440C330E4A1A609DF80B301B01C7
S214485C200A4A1A449DF80B10019B002008F01AFEF9
S214485C300390039B184605B05DF804FBF1D4D633B1
S214485C4034084020F40540200301A50058054020AC
S214485C508096980000B585B0234B0393002008F043
S214485C6059FD03468DF80B30102200211F4801F0DD
S214485C7073FA9DF80B201346DB009B1A1B011C4A3F
S214485C801344019370220021019801F065FA019BA4
S214485C9008330093019B174A1A60009B4FF48032E2
S214485CA01A60124A009B5A609DF80B30124A1B0134
S214485CB0134400221A609DF80B300F4A1B01134408
S214485CC00C330E4A1A609DF80B301B010A4A1A44D8
S214485CD09DF80B10019B002008F0C4FD0390039B21
S214485CE0184605B05DF804FBF1D4D6336808402062
S214485CF0F40540200301A5005805402080969800EA
S214485D0000B585B03F4B0393FFF7A4FF03463E4AD2
S214485D1013603D4B1B683D4A934201D13B4B6DE0B7
S214485D20002008F0F7FC03468DF80B3010220021BF
S214485D30374801F011FA364B03221A80344B80223A
S214485D405A80334B00225A60314B12221A739DF800
S214485D500B201346DB009B1A1B012E4A1344019363
S214485D6070220021019801F0F7F9019B083300934F
S214485D70019B4FF482721A60009B4FF480321A607F
S214485D80234A009B5A60009B00229A60009B002290
S214485D90DA60214A009B1A61009B00229A82009B87
S214485DA00022DA82009B10221A83009B4FF0FF32B3
S214485DB0DA61009B4FF0FF321A649DF80B30174AA1
S214485DC01B01134400221A609DF80B30134A1B012E
S214485DD013440C33124A1A609DF80B301B010F4AC5
S214485DE01A449DF80B10019B002008F03BFD0390D9
S214485DF0FFF730FF0346044A1360039B184605B076
S214485E005DF804FBF1D4D6330C0E402033AAA555D2
S214485E10E4084020F40540205C51490058054020DD
S214485E208096980000B585B0244B0393002008F070
S214485E3071FC03468DF80B309DF80B201346DB00AB
S214485E409B1A1B011E4A1344019370220021019895
S214485E5001F082F9019B08330093019B4FF481724D
S214485E601A60009B4FF480321A60009B05221A7114
S214485E709DF80B30134A1B01134400221A609DF804
S214485E800B30104A1B0113440C330F4A1A609DF816
S214485E900B301B010B4A1A449DF80B10019B00203F
S214485EA008F0E0FC0390FFF7D5FE0346074A136068
S214485EB0039B184605B05DF804FB00BFF1D4D63303
S214485EC0F405402058054020809698000C0E402047
S214485ED000B585B0234B0393002008F01BFC03460F
S214485EE08DF80B30102200211F4801F035F99DF837
S214485EF00B201346DB009B1A1B011C4A13440193D4
S214485F0070220021019801F027F9019B083300937D
S214485F10019B174A1A60009B164A1A60124A009B51
S214485F205A609DF80B30144A1B01134400221A602D
S214485F309DF80B30104A1B0113440C330F4A1A6065
S214485F409DF80B301B010C4A1A449DF80B10019B18
S214485F50002008F087FC0390039B184605B05DF8C0
S214485F6004FB00BFF1D4D6339C084020F4054020FB
S214485F700301A500010002005805402080969800BD
S214485F8000B585B0294B0393002008F0C3FB0346B1
S214485F908DF80B309DF80B201346DB009B1A1B012F
S214485FA0234A1344019370220021019801F0D4F843
S214485FB0019B08330093019B4FF483721A60009B41
S214485FC01C4A1A60009B03229A80009B8022DA8033
S214485FD0009B12221A74009B01221A75009B00220D
S214485FE09A619DF80B30144A1B01134400221A602C
S214485FF09DF80B30104A1B0113440C330F4A1A60A5
S2144860009DF80B301B010C4A1A449DF80B10019B57
S214486010002008F027FC0390FFF75AFF0346084A7B
S2144860201360039B184605B05DF804FBF1D4D633DD
S214486030F40540200100020058054020809698004C
S2144860401C0E402000B589B0029101920093034689
S2144860508DF80F302D4B0793002008F05BFB034666
S2144860608DF81B309DF81B201346DB009B1A1B013E
S214486070274A1344059370220021059801F06CF8CE
S214486080059B08330493059B224A1A60049B00220A
S2144860901A70049B10229A70049B0322DA70049BA1
S2144860A09DF80F201A71049B00225A71049B029A8D
S2144860B09A60049B0022DA60049B0A9A1A61019A45
S2144860C0049B5A61009A049B9A619DF81B30124AB9
S2144860D01B01134400221A609DF81B300E4A1B0110
S2144860E013440C330D4A1A609DF81B301B010A4AAC
S2144860F01A449DF81B10059B002008F0B3FB079038
S214486100079B184609B05DF804FB00BFF1D4D633A8
S214486110F40540200302A5005805402080969800C4
S21448612000B587B0059004910392039B0093049BA7
S214486130059A4FF400310120FFF784FF03461846BE
S21448614007B05DF804FB00B587B00590049103924C
S214486150039B0093049B059A4FF400310020FFF7F9
S21448616071FF0346184607B05DF804FB00B589B0D2
S21448617002910192009303468DF80F302D4B0793FA
S214486180002008F0C7FA03468DF81B309DF81B2000
S2144861901346DB009B1A1B01274A134405937022BB
S2144861A00021059800F0D8FF059B08330493059B0B
S2144861B0224A1A60049B00221A70049B10229A7086
S2144861C0049B0122DA70049B9DF80F201A71049BE9
S2144861D000225A71049B029A9A60019A049BDA60DC
S2144861E0049B0B9A1A61009A049B5A610A9A049B6C
S2144861F09A619DF81B30124A1B01134400221A600C
S2144862009DF81B300E4A1B0113440C330D4A1A6086
S2144862109DF81B301B010A4A1A449DF81B10059B23
S214486220002008F01FFB0790079B184609B05DF84A
S21448623004FB00BFF1D4D633F40540200302A50082
S214486240580540208096980000B587B00590049180
S21448625003920293029B0193039B0093049B059A27
S2144862604FF480310120FFF781FF0346184607B0F8
S2144862705DF804FB00B587B005900491039202933D
S214486280029B0193039B0093049B059A4FF480312D
S2144862900020FFF76BFF0346184607B05DF804FB7F
S2144862A000B587B0059004910392039B0093049B26
S2144862B0059A4FF480310120FFF7C4FE034618467E
S2144862C007B05DF804FB00B587B0059004910392CB
S2144862D0039B0093049B059A4FF480310020FFF7F8
S2144862E0B1FE0346184607B05DF804FB00B587B014
S2144862F0059004910392039B0093049B059A0449D6
S2144863000120FFF79FFE0346184607B05DF804FBDA
S2144863100100020000B587B0059004910392039BE4
S2144863200093049B059A04490020FFF78BFE03461A
S214486330184607B05DF804FB0100020000B583B0BC
S2144863400223019300238DF8033011E09DF80330B3
S21448635003330021184602F043FB0190019B002BB3
S21448636001D0019B09E09DF8033001338DF80330D6
S2144863709DF80330022BE9D9019B184603B05DF817
S21448638004FB00B583B000238DF807300BE09DF87A
S214486390073003330021184602F00CFA9DF8073000
S2144863A001338DF807309DF80730022BEFD900BF30
S2144863B000BF03B05DF804FB00B583B00223019329
S2144863C000238DF8033024E09DF803300333002182
S2144863D0184602F005FB01909DF803300333002170
S2144863E0184602F0B5FB0190019B002B01D0019B9B
S2144863F014E002F0FFFB0190019B012BF9D0019BB2
S214486400002B01D0019B09E09DF8033001338DF83D
S21448641003309DF80330022BD6D9019B184603B0AB
S2144864205DF804FB00B5A5B002232193002323930F
S2144864302FE0002322930DE0239BDAB2229BDBB2A7
S2144864401344D9B201AA229B13440A461A70229BC7
S21448645001332293229B7F2BEED9239B1148184465
S21448646001AA0023802102F0E5FB2190219B002B06
S21448647001D0219B12E002F03FFC2190219B012B8A
S214486480F9D0219B002B01D0219B07E0239B80332A
S2144864902393239BB3F5A04FCBD3219B184625B017
S2144864A05DF804FB0060001000B5A3B000232193FC
S2144864B026E0219A174B13446A468021184602F074
S2144864C03BFC0346002B01D000231EE0002320930C
S2144864D010E06A46209B13441A78219BD9B2209B29
S2144864E0DBB20B44DBB29A4201D000230DE0209B7E
S2144864F001332093209B7F2BEBD9219B803321931C
S214486500219BB3F5A04FD4D30123184623B05DF89A
S21448651004FB00BF0060001008B5FFF70FFF0346F6
S214486520144A1360134B1B68002B04D1FFF744FF33
S2144865300346104A13600F4B1B68002B04D1FFF725
S21448654071FF03460B4A13600A4B1B68002B06D1A3
S214486550FFF7AAFF0346002B01D0012300E00023E3
S21448656003F00103DAB2044B1A70FFF70AFF00BFC4
S21448657008BD00BF300E4020F408402000B585B066
S214486580354B0393002008F0C5F803468DF80B30CA
S21448659010220021314800F0DFFD304B0C221A80D3
S2144865A02E4B80225A802D4B12221A739DF80B20B0
S2144865B01346DB009B1A1B01294A13440193702299
S2144865C00021019800F0C8FD019B08330093019B09
S2144865D04FF482721A60009B4FF002121A601F4AEC
S2144865E0009B5A60009B00229A60009B0022DA605B
S2144865F01C4A009B1A61009B00229A82009B00223C
S214486600DA82009B10221A83009B4FF0FF32DA6131
S214486610009B4FF0FF321A649DF80B30124A1B015C
S214486620134400221A609DF80B300F4A1B0113448E
S2144866300C330E4A1A609DF80B301B010A4A1A445E
S2144866409DF80B10019B002008F00CF90390039B63
S214486650184605B05DF804FBF1D4D633200B40202D
S21448666060094020845149002009402080969800BF
S21448667000B585B0234B0393002008F04BF803463B
S2144866808DF80B30102200211F4800F065FD9DF85C
S2144866900B201346DB009B1A1B011C4A134401932C
S2144866A070220021019800F057FD019B08330093A3
S2144866B0019B174A1A60009B4FF001121A60124A53
S2144866C0009B5A609DF80B30124A1B011344002267
S2144866D01A609DF80B300F4A1B0113440C330E4AC0
S2144866E01A609DF80B301B010A4A1A449DF80B1095
S2144866F0019B002008F0B6F80390039B184605B0A7
S2144867005DF804FBF1D4D633F808402060094020F1
S2144867100301A500200940208096980000B585B062
S2144867203F4B0393FFF7A4FF03463E4A13603D4B97
S2144867301B683D4A934201D13B4B6DE0002007F071
S214486740E9FF03468DF80B3010220021374800F049
S21448675003FD364B08221A80344B80225A80334B2E
S21448676000225A60314B12221A739DF80B201346AA
S214486770DB009B1A1B012E4A13440193702200210A
S214486780019800F0E9FC019B08330093019B4FF405
S21448679082721A60009B4FF001121A60234A009BCF
S2144867A05A60009B00229A60009B0022DA60214AC9
S2144867B0009B1A61009B00229A82009B0022DA8284
S2144867C0009B10221A83009B4FF0FF32DA61009B31
S2144867D04FF0FF321A649DF80B30174A1B011344DA
S2144867E000221A609DF80B30134A1B0113440C33E1
S2144867F0124A1A609DF80B301B010F4A1A449DF83E
S2144868000B10019B002008F02DF80390FFF730FF8F
S2144868100346044A1360039B184605B05DF804FB1C
S214486820F1D4D6333C0E402033AAA555300B402031
S21448683060094020845149002009402080969800ED
S21448684000B587B001900091304B0593002007F0C3
S21448685061FF03468DF813302D4B10221A609DF8C1
S21448686013201346DB009B1A1B012A4A1344039342
S21448687070220021039800F06FFC039B08330293B4
S214486880039B254A1A60029B00221A70029B00222C
S2144868905A70029B01229A70029B0022DA70029B71
S2144868A011221A71029B10221A72029B4FF0021292
S2144868B01A61029B009A5A61019A029B9A61144A8D
S2144868C0029BDA61154A029B1A629DF81330144AF5
S2144868D01B01134400221A609DF81330104A1B010E
S2144868E013440C330F4A1A609DF813301B010C4AA8
S2144868F01A449DF81310039B002007F0B3FF059039
S214486900059B184607B05DF804FB00BFF1D4D633A4
S21448691018094020600940200102A50008094020C7
S214486920200940208096980000B585B0214B0393F7
S214486930002007F0EFFE03468DF80B309DF80B203D
S2144869401346DB009B1A1B011B4A13440193702213
S2144869500021019800F000FC019B08330093019B3E
S2144869604FF481721A60009B4FF002121A60009B27
S21448697005221A719DF80B30104A1B011344002259
S2144869801A609DF80B300D4A1B0113440C330C4A11
S2144869901A609DF80B301B01084A1A449DF80B10E4
S2144869A0019B002007F05EFF0390039B184605B046
S2144869B05DF804FBF1D4D633600940202009402016
S2144869C08096980000B589B00346029101928DF8EA
S2144869D00F303C4B0793002007F09CFE03468DF88B
S2144869E01B3040220021384800F0B6FB029B364A4E
S2144869F01360354A019B5360334B00229A60324BF2
S214486A0004221A73304B00221A612F4B4FF00112A2
S214486A105A612D4B11221A762B4B10221A772B4A85
S214486A20294B5A62284B0022DA639DF81B201346EE
S214486A30DB009B1A1B01264A13440593702200214B
S214486A40059800F089FB059B08330493059B40F2A4
S214486A5001521A60049B00221A70049B9DF80F206E
S214486A605A70194A049B5A60029A049B9A60049B7F
S214486A70019ADA60154A049B1A61164B1B689AB24B
S214486A80049B1A839DF81B30134A1B0113440022AB
S214486A901A609DF81B30104A1B0113440C330F4AEA
S214486AA01A609DF81B301B010B4A1A449DF81B10B0
S214486AB0059B002007F0D6FE0790079B184609B0AE
S214486AC05DF804FBF1D4D633400B4020080940203B
S214486AD060094020180940202009402080969800E8
S214486AE000B587B003468DF80730234B0593002042
S214486AF007F010FE03468DF813309DF81320134612
S214486B00DB009B1A1B011D4A134403937022002185
S214486B10039800F021FB039B08330293039B40F243
S214486B2002521A60029B9DF807201A70029B0022A8
S214486B305A70029B00225A809DF81330104A1B0157
S214486B40134400221A609DF813300D4A1B01134463
S214486B500C330C4A1A609DF813301B01084A1A4435
S214486B609DF81310039B002007F07CFE0590059BBC
S214486B70184607B05DF804FBF1D4D63360094020C8
S214486B80200940208096980000B5A3B003468DF8AB
S214486B9007300023029303AB7C220021184600F0FE
S214486BA0DBFA0021032001F01BFF03461A4A136054
S214486BB0194B1B68002B15D102AA002380211748C1
S214486BC002F038F80346144A1360134B1B68002B30
S214486BD008D102F091F803460F4A13600E4B1B6823
S214486BE0012BF6D00021032001F0E4FD9DF8073084
S214486BF01846FFF775FF0346094A1360084B1B689B
S214486C00084A93420CBF01230023DAB2064B1A7097
S214486C1000BF23B05DF804FB500E40200060001013
S214486C20540E402064A1A5551C09402008B5FFF71E
S214486C3073FC194B1B7883F00103DBB2002B29D178
S214486C40FFF79CFC0346154A13604FF4A0411448CE
S214486C50FFF7F6FD0346134A1360FFF75FFD03464A
S214486C60114A13604FF4A0420D490120FFF7AAFECF
S214486C7003460E4A1360FFF757FE03460C4A136056
S214486C800120FFF72DFF03460A4A13600120FFF74D
S214486C907BFF00E000BF08BDF4084020340E4020CB
S214486CA000600010400E4020380E4020480E40201D
S214486CB0440E40204C0E402008B5034904200DF0F1
S214486CC04FFD00BF08BD00BF9451490000B583B0D2
S214486CD003468DF807309DF807300D3B052B00F22C
S214486CE0908001A252F823F0016D48005D6D48007F
S214486CF02F6D4800036E48008B6D4800C76D4800EE
S214486D00424B1B78002B14BF01230023DBB283F0D1
S214486D100103DBB203F00103DAB23C4B1A703B4B7B
S214486D201B781A460D213A480DF031F969E0374B81
S214486D301B78002B14BF01230023DBB283F001032A
S214486D40DBB203F00103DAB2304B1A702F4B1B78D4
S214486D501A460F212E480DF01AF952E02B4B1B7895
S214486D60002B14BF01230023DBB283F00103DBB200
S214486D7003F00103DAB2254B1A70244B1B781A46E7
S214486D800E2123480DF003F93BE0204B1B78002BDF
S214486D9014BF01230023DBB283F00103DBB203F008
S214486DA00103DAB2194B1A70184B1B781A460D2194
S214486DB017480DF0ECF8154B1B781A460E21144868
S214486DC00DF0E5F81DE0114B1B78002B14BF01238E
S214486DD00023DBB283F00103DBB203F00103DAB22F
S214486DE00A4B1A70094B1B781A460E2108480DF0B4
S214486DF0CEF8064B1B781A460F2105480DF0C7F803
S214486E0000BF00BF03B05DF804FB00BF800B402006
S214486E100017294008B5FDF793FCFEE7034613F82C
S214486E20012B002AFBD1181A0138704753B94AB9C2
S214486E30002908BF00281CBF4FF0FF314FF0FF3035
S214486E4000F078B9ADF1080C6DE904CE00F006F80C
S214486E50DDF804E0DDE9022304B070472DE9F04789
S214486E60089D0E4604468E46002B4CD18A429446D0
S214486E7067D9B2FA82F252B101FA02F3C2F120019E
S214486E8020FA01F10CFA02FC41EA030E94404FEA5C
S214486E901C48210CBEFBF8F61FFA8CF708FB16E3D5
S214486EA041EA034306FB07F199420AD91CEB030360
S214486EB006F1FF3080F01E81994240F21B81023E67
S214486EC063445B1AA4B2B3FBF8F008FB103344EAF9
S214486ED0034400FB07F7A7420AD91CEB040400F159
S214486EE0FF3380F00981A74240F2068164440238A5
S214486EF0E41B40EA064000211DB1D4400023C5E902
S214486F000043BDE8F0878B4208D9002D00F0EF809B
S214486F100021C5E900060846BDE8F087B3FA83F1C4
S214486F20002949D1B34202D3824200F2FF80841A34
S214486F3066EB030301209E46002DE2D0C5E9004ECD
S214486F40DFE702B9FFDEB2FA82F2002A40F08E800E
S214486F50A1EB0C064FEA1C471FFA8CF30121B6FB3F
S214486F60F7FE07FB1E60260C46EA004603FB0EF0BB
S214486F70B04208D91CEB06060EF1FF3802D2B042E2
S214486F8000F2D080C646361AA4B2B6FBF7F007FB26
S214486F90106644EA064400FB03F3A34208D91CEBF8
S214486FA0040400F1FF3602D2A34200F2B88030460D
S214486FB0E41A40EA0E409FE7C1F1200722FA07F498
S214486FC08B40234306FA01FC26FA07F420FA07F614
S214486FD046EA0C064FEA134900FA01F8B4FBF9FEF4
S214486FE0300C1FFA83FC09FB1E4440EA04440EFB9F
S214486FF00CF0A04202FA01F20AD91C190EF1FF3A27
S21448700080F08B80A04240F28880AEF1020E1C448D
S214487010241AB6B2B4FBF9F009FB104446EA044415
S21448702000FB0CFCA44507D91C1900F1FF3670D2AA
S214487030A4456ED902381C4440EA0E40A0FB02E63E
S214487040A4EB0C04B442F446B14659D356D0002DAE
S2144870506ED0B8EB0C0364EB0904CB4004FA07F790
S2144870601F43CC40C5E9007400214AE7C2F120001E
S21448707024FA00F10CFA02FC06FA02F326FA00F0AB
S2144870804FEA1C4741EA0306B0FBF7F11FFA8CF3B8
S21448709007FB110E300C40EA0E4001FB03FE864506
S2144870A004FA02F408D91CEB000001F1FF3832D28A
S2144870B0864530D902396044A0EB0E00B6B2B0FB24
S2144870C0F7FE07FB1E0046EA00460EFB03F0B042FA
S2144870D009D91CEB06060EF1FF3818D2B04216D96D
S2144870E0AEF1020E6644361A4EEA014137E72946A3
S2144870F0284606E70646E4E61846F9E6F045A6D2E8
S214487100BEEB020C66EB0303013899469FE7C6467A
S214487110E9E7304690E74146CEE7D64678E7644406
S214487120023845E7AEF1020E66442CE7084603E708
S2144871302946E6E6704700BF10B50139024490423A
S21448714001D1002005E0037811F8014FA34201D091
S214487150181B10BD0130F2E702440346934200D1A3
S214487160704703F8011BF9E7FEE7FEE7FEE7FEE790
S214487170FEE7FEE7FEE7FEE7FEE7FEE782B00190A1
S2144871804FF0E023D3F80C3D23F4E0624FF0E021C3
S214487190019B1343C1F80C3D00BF02B0704782B054
S2144871A003468DF807309DF8073003F01F034FF06D
S2144871B0E0219DF807205209D2B2104601229A4093
S2144871C000F1400341F8232000BF02B0704782B068
S2144871D003468DF807309DF8073003F01F034FF03D
S2144871E0E0219DF807205209D2B2104601229A4063
S2144871F000F1600341F8232000BF02B0704784B016
S21448720003460A468DF8073013468DF806300423A1
S2144872108DF80F309DF806209DF80F3002FA03F1DE
S2144872204FF0E0229DF80730C9B213440A4683F867
S214487230002400BF04B070478EB000230B93002391
S2144872400A9300230D9300230C935F4B09935F4BDF
S2144872500893099B1B680B93099B04330993099B66
S214487260079300230D9366E00D9A13465B0013447C
S2144872709B001A46079B13445B6804930D9A134673
S2144872805B0013449B001A46079B13441B680593F0
S2144872900D9A13465B0013449B001A46079B1344FB
S2144872A09B6819460D9A13465B0013449B001A4682
S2144872B0079B13445B68CB1A0A930A9BDBB203F01E
S2144872C003038DF80F3000230C930CE00C9B9B00B7
S2144872D0049A1A440C9B9B0005990B4412681A6042
S2144872E00C9B01330C939DF80F300A9AD31A9B08CF
S2144872F00C9A9A42EAD30C9B9B00049A1344029336
S2144873000C9B9B00059A1344019300230C930AE0B8
S214487310029A0C9B1A4401990C9B0B4412781A70DB
S2144873200C9B01330C939DF80F300C9A9A42EFD37E
S2144873300D9B01330D930D9A0B9B9A4294D3089B51
S2144873401B680B93089B04330893089B06930023FB
S2144873500D9331E00D9BDB00069A13441B6805939A
S2144873600D9BDB00069A13445B6819460D9BDB00B1
S214487370069A13441B68CB1A0A9300230C9308E01A
S2144873800C9B9B00059A134400221A600C9B013301
S2144873900C930A9B9B080C9A9A42F1D30A9B03F0DB
S2144873A00303002B05D00C9B9B00059A1344002230
S2144873B01A600D9B01330D930D9A0B9B9A42C9D3C5
S2144873C000BF00BF0EB0704728694900746949007D
S2144873D08CB0002309930023089300230B930023C3
S2144873E00A933E4B0793079B1B680993079B0433F6
S2144873F00793079B06933A4B0B9366E00B9A134604
S2144874005B0013449B001A46069B13445B6805932F
S2144874100B9A13465B0013449B001A46069B13447C
S2144874201B6804930B9A13465B0013449B001A464A
S214487430069B13449B6819460B9A13465B001344F5
S2144874409B001A46069B13445B68CB1A0893089B16
S214487450DBB203F003038DF80F3000230A930CE0E9
S2144874600A9B9B00059A1A440A9B9B0004990B4466
S21448747012681A600A9B01330A939DF80F30089ADF
S214487480D31A9B080A9A9A42EAD30A9B9B00059A03
S214487490134402930A9B9B00049A134401930023C7
S2144874A00A930AE0029A0A9B1A4401990A9B0B44DB
S2144874B012781A700A9B01330A939DF80F300A9A7D
S2144874C09A42EFD30B9B01330B930B9A099B9A4234
S2144874D094D300BF00BF0CB0704700BF286949006E
S2144874E00300000000BF7047FEE7044B5B68DBB252
S2144874F003F00303DBB21846704700BF000026407F
S21448750000B587B000230493FFF7EFFF03468DF8D6
S2144875100D3000238DF80F3000238DF80E309D4B2C
S2144875205B691B0CDBB202939A4B5B691B0EDBB2A2
S21448753001939DF80D30022B0CD0022B07DC002B54
S21448754002D0012B08D002E00123049305E0002373
S214487550049302E000BF00E000BF0023059313E059
S2144875608C4A059B03F5886332F813309AB2049B1D
S2144875709BB2884913439AB2059B03F5886321F862
S2144875801320059B01330593059BEF2BE8D9824BC7
S21448759000221A60814B824A1A60824A7E4B5A60A1
S2144875A0029B082B03D17D4B7F4A5A6002E07B4BF7
S2144875B07E4A5A607E4A784B9A60784B7D4A9A60F3
S2144875C07D4A754BDA60754B7C4ADA60724B4FF0F1
S2144875D0D8521A61714B7A4A1A617A4A6E4B5A6186
S2144875E0019B092B03D16D4B774A5A6102E06B4BDE
S2144875F06D4A5A61754A684B9A61754B013B5A0009
S214487600744B1343654A9361734A634BDA61734B11
S214487610013B5A00724B1343604AD361714A5E4B32
S2144876201A62714B013B5A006D4B13435B4A136217
S214487630594B4FF080425A62584B6C4A5A62564BE6
S2144876406B4A9A62554B00229A62534B4FF0CE4291
S214487650DA62524B674ADA624F4B4FF0D0421A63AF
S2144876604E4B654A1A634C4B4FF060425A634B4B3D
S214487670624A5A634E4B03F58003474A9363474B27
S21448768000229A63444B4FF08842DA63434B002209
S214487690DA63BFF34F8FBFF36F8F4FF0E023D3F813
S2144876A0143D03F40033002B07D14FF0E023D3F802
S2144876B0143D03F48033002B26D0BFF34F8FBFF31F
S2144876C06F8F00BFBFF34F8FBFF36F8F00BF4FF072
S2144876D0E023D3F8143D4FF0E02223F40033C2F8F9
S2144876E0143DBFF34F8FBFF36F8F4FF0E023D3F8AF
S2144876F0143D4FF0E02223F48033C2F8143DBFF324
S2144877004F8FBFF36F8F00BF00238DF80F302AE0EE
S2144877109DF80F30214A52F8233003F00103012B1D
S2144877201CD14FF0E0229DF80E30C2F8983D9DF8E7
S2144877300F304FF0E022184951F82330C2F89C3DEC
S2144877409DF80F304FF0E022144951F82330C2F824
S214487750A03D9DF80E3001338DF80E309DF80F3061
S21448776001338DF80F309DF80F300F2BD0D94FF0DE
S214487770E023D3F8943D4FF0E02243F00303C2F8E9
S214487780943DBFF34F8FBFF36F8F00BF07B05DF8D0
S21448779004FB00BF00002640000040204000402078
S2144877A03F000410000000001F0008031D000803E7
S2144877B00020480029000B070000001023000B1685
S2144877C019000B1600000020210008030000402086
S2144877D00F00000001000B03008040200F0000004F
S2144877E001000C13000041200F0000002DC00413B8
S2144877F0000060401300041335000F1727000413D9
S2144878004FF0E023D3F8883D4FF0E02243F470036E
S214487810C2F8883DBFF34F8FBFF36F8F00BF7047E6
S21448782008B5054B1B681B68002B03D0024B1B682A
S2144878301B68984700BF08BD940B402008B5054B09
S2144878401B685B68002B03D0024B1B685B68984735
S21448785000BF08BD940B402086B001908023059356
S2144878600C230493019B0F2B03D8144A019B1360E7
S2144878701FE0019BB3F5887F03D1104B00221A60A6
S21448788017E0019B103B0393059B013B039A13406B
S2144878900293049BDB00029A9A4204D2029BDB08BE
S2144878A0064A136005E0049BDB00029AD31A034A93
S2144878B01360024B1B68184606B07047980B40206A
S2144878C084B00190019B0F2B05D8019B03F500431C
S2144878D05B03039314E0019BB3F5887F05D2019BB5
S2144878E003F5F8735B0303930AE0019BB3F5887FBF
S2144878F003D14FF0D853039302E04FF0FF3303937E
S214487900039B184604B0704784B00190019BB3F5BA
S214487910A00F02D20023039308E0019BB3F5C00FE3
S21448792002D20123039301E0FF230393039B1846E7
S21448793004B0704786B00190802305930C230493C7
S214487940019B103B0393059B013B039A134002930C
S214487950049BDB00029A9A4234BF01230023DBB221
S214487960184606B0704700B587B001900B468DF8AC
S21448797003300023059300238DF813300023039328
S214487980019BB3F5887F04D803AB1946019800F0ED
S2144879901FF8039A0D4B1B681340002B11D00DF1AE
S2144879A013031946019800F053F89DF81330FF2B3F
S2144879B007D09DF813309DF803209A4201D0022341
S2144879C00593059B184607B05DF804FB9C0B4020C2
S2144879D000B587B00190009180230593019B0F2B3B
S2144879E005D81A4BD3F88823009B1A602AE0019BD7
S2144879F0B3F5887F05D1154BD3F89823009B1A60BA
S214487A0020E0019B103B0493049A059BB2FBF3F3DA
S214487A108DF80F300198FFF78DFF0346002B09D0ED
S214487A200A4A9DF80F30E6339B0013445A68009B79
S214487A301A6007E0054A9DF80F30E03352F82320D5
S214487A40009B1A6000BF07B05DF804FB0080264024
S214487A5000B58BB001900091019B09938023079352
S214487A600C230693314B0593314B0493002308931C
S214487A70019B0F2B06D8099B23F003022D4B13447A
S214487A80089343E0019BB3F5887F02D12A4B0893BD
S214487A903CE0019B103B0393039A079BB2FBF3F32E
S214487AA08DF80B30039B079AB3FBF2F2079901FB5C
S214487AB002F29B1A09930198FFF73CFF0346002BF6
S214487AC011D09DF80B301B018DF80A30099BDB0856
S214487AD009939DF80A20059B1A44099B23F0030343
S214487AE01344089312E09DF80B305B018DF80A307A
S214487AF0069BDB00099AD31A09939DF80A20049B33
S214487B001A44099B23F0030313440893089B1A68F6
S214487B10099B03F00303DB0022FA03F3DAB2009B67
S214487B201A7000BF0BB05DF804FB00BF8484264083
S214487B30C08326400084264080842640054B1B6927
S214487B40044A23F00E031361024B024A1B69136171
S214487B5000BF70470080264082B00190019B1B788A
S214487B60184602B0704782B00190019B1B881846A1
S214487B7002B0704782B00190019B1B68184602B05D
S214487B80704710B588B0039002910192029B069305
S214487B90039A069B13430593059B03F00303002BA8
S214487BA00BD1019B032B08D904230793069C039803
S214487BB0FFF7E0FF0346236019E0059B03F0010347
S214487BC0002B0BD1019B012B08D902230793069C57
S214487BD00398FFF7C8FF0346238008E0012307936E
S214487BE00398FFF7B9FF03461A46029B1A70079B8D
S214487BF0184608B010BD84B0019000910423039342
S214487C00009B002B04D0019B002B01D0002303933C
S214487C10039B184604B0704700B585B00190002312
S214487C20039300F091F9039B184605B05DF804FBF2
S214487C3084B001900B468DF8033002230393194B0A
S214487C405A68194B13400293029B002B15D0154BCC
S214487C505B6803F08043002B05D0144B0C221A6057
S214487C600023039302E0114B02221A600D4B5A6818
S214487C700C49029B13404B600FE09DF8033083F09D
S214487C800103DBB2002B03D0084B06221A6004E03F
S214487C9000230393054B00221A60039B184604B042
S214487CA0704700BF00C02E40000010735C0E402096
S214487CB000B589B001900091019B0793009B0693FD
S214487CC00798FFF7A9FF0490049B002B12D1FFF7F3
S214487CD0A7FD0DF10F031A460699079800F05BF8C2
S214487CE00590FFF7ABFD9DF80F3019460798FFF74C
S214487CF09FFF0490049B002B0BD1079A059B1344C7
S214487D000793069A059BD31A0693069B002BD7D152
S214487D1000E000BF00BF09B05DF804FB00B58BB0BB
S214487D20039002910192039B0993029B0893019B3F
S214487D3007930998FFF770FF0590059B002B12D113
S214487D40FFF76EFD0DF11303079A0899099800F09E
S214487D5069F80690FFF772FD9DF8133019460998A2
S214487D60FFF766FF0590059B002B0FD1099A069BE7
S214487D7013440993089A069B13440893079A069B4C
S214487D80D31A0793079B002BD3D100E000BF00BF50
S214487D900BB05DF804FB00B587B0039002910192E2
S214487DA0039B03F00303002B11D1029B032B0ED930
S214487DB0042305930398FFF7DDFE0346B3F1FF3F20
S214487DC00CBF01230023DAB2019B1A7025E0039BFF
S214487DD003F00103002B13D1029B012B10D9022379
S214487DE005930398FFF7BFFE03461A464FF6FF7300
S214487DF09A420CBF01230023DAB2019B1A700CE0AA
S214487E00012305930398FFF7A7FE0346FF2B0CBFF5
S214487E1001230023DAB2019B1A70059B184607B067
S214487E205DF804FB10B586B003900291019200936A
S214487E30039A029B13430493049B03F00303002B0B
S214487E4014D1019B032B11D9042305930398FFF7FC
S214487E5091FE04460298FFF78DFE03469C420CBFEF
S214487E6001230023DAB2009B1A702CE0049B03F02F
S214487E700103002B15D1019B012B12D90223059330
S214487E800398FFF770FE03461C460298FFF76BFE02
S214487E9003469C420CBF01230023DAB2009B1A70AB
S214487EA011E0012305930398FFF756FE03461C4648
S214487EB00298FFF751FE03469C420CBF012300235D
S214487EC0DAB2009B1A70059B184606B010BD00B57E
S214487ED083B000F017F80190094B1B68084A23F452
S214487EE080531360064B1B68054A23F4004313600F
S214487EF000F02AF8019B184603B05DF804FB00BF63
S214487F0000C02E4000B583B0002301930AF032F833
S214487F100C4B1B680B4A23F00103136000BF094B48
S214487F205B6803F40043002BF9D0064B1B68054AF0
S214487F3023F4987313600AF049F8019B184603B077
S214487F405DF804FB00C02E40034B5A680249034BB9
S214487F5013404B6000BF704700C02E40000013F32C
S214487F6000B585B00190019BB3F5887F02D90423FC
S214487F7003931BE0104B1B6803F48873002B02D056
S214487F800223039312E00C4BD3F89430002B02DA0A
S214487F90022303930AE0019800F0B2FC0346092B3B
S214487FA002D00223039301E000230393039B184661
S214487FB005B05DF804FB00BF00C02E4000B589B090
S214487FC0039002910192039800F06AFB0690039B87
S214487FD003F07F030593039B03F00703002B0FD1A1
S214487FE0029B03F00703002B0AD1029A059B134411
S214487FF0802B05D8029B002B02D0019B002B02D178
S214488000042307931BE0104B1B6803F48873002B6C
S21448801002D00223079312E00B4BD3F89430002B80
S21448802002DA022307930AE0069800F069FC034642
S214488030092B02D00223079301E000230793079BEE
S214488040184609B05DF804FB00C02E4000B585B060
S21448805001900B468DF8033000230393019800F0F7
S214488060B7F8084B1B681B0C8DF80B309DF80B2097
S2144880709DF803309A42F1D1039B184605B05DF847
S21448808004FB00BF00C02E400C4B0022C3F8002162
S2144880900A4B1B68094A43F48073136000BF074BBA
S2144880A01B6803F48073002BF9D0044B1B68034A03
S2144880B023F48073136000BF704700BF00C02E4093
S2144880C08AB0039002910192029B0993029B0893FF
S2144880D0039B079300230593019B0693029B03F09B
S2144880E00303002B20D1079B013305933749099B8F
S2144880F01A68079B403341F823203449099B5A683D
S214488100059B403341F82320099B08330993079B76
S21448811002330793069B083B0693069B002B52D0D8
S214488120079B1E2BDFD94EE0079B01330593089B20
S2144881301B780493089B01331B781A02049B13434D
S2144881400493089B02331B781A04049B1343049336
S214488150089B03331B781A06049B134304931B4956
S214488160049A079B403341F82320089B04331B7826
S2144881700493089B05331B781A02049B1343049305
S214488180089B06331B781A04049B13430493089BE6
S21448819007331B781A06049B134304930B49049A27
S2144881A0059B403341F82320089B08330893079BD8
S2144881B002330793069B083B0693069B002B02D088
S2144881C0079B1E2BB0D900BF0AB0704700C02E4090
S2144881D082B00190034A019BC2F8003300BF02B048
S2144881E0704700BF00802640034B1B69024A23F0B5
S2144881F00103136100BF70470080264084B0019099
S21448820001238DF80F30019BB3F5800F0ED0019BEC
S214488210B3F5A00F0AD0019BB3F1805F06D0019B4F
S214488220B3F1D85F02D000238DF80F309DF80F3099
S214488230184604B0704782B000230193114BD3F818
S2144882409430104A23F04003C2F8943000BF0D4BD8
S214488250D3F8943003F00103002BF8D1094BD3F838
S214488260943003F04003002B06D1064BD3F89430E5
S21448827003F00103002B01D002230193019B18460B
S21448828002B0704700C02E4082B000230193194BBD
S2144882905B680093009A184B13400093009B43F08A
S2144882A040430093134A009B5360124BD3F89430D4
S2144882B0104A23F40073C2F8943000BF0D4BD3F82D
S2144882C0943003F00103002BF8D10A4BD3F89430CE
S2144882D003F40073002B06D1064BD3F8943003F012
S2144882E00103002B01D002230193019B184602B0DC
S2144882F0704700BF00C02E40FFFFEC0C84B00190D2
S214488300019B002B18D100238DF80F300BE01A4A3A
S2144883109DF80F302633002142F823109DF80F3081
S21448832001338DF80F309DF80F30082BEFD9124BDC
S2144883300022C3F8BC201CE000238DF80F300FE065
S2144883409DF80F100C489DF80F30019A52F82120DE
S214488350263340F823209DF80F3001338DF80F3030
S2144883609DF80F30082BEBD9034A019B5B6AC2F88D
S214488370BC3000BF04B0704700C02E4084B00190A7
S214488380019B002B03D0019B012B1FD03DE0294BBE
S2144883905B680393039A284B13400393039B43F06D
S2144883A040430393234A039B5360224BD3F89430AD
S2144883B0204A43F48073C2F894301E4BD3F8943066
S2144883C01C4A23F08043C2F894302FE0194B5B6870
S2144883D00393039A184B13400393039B43F040437D
S2144883E00393144A039B5360124BD3F89430114AB4
S2144883F043F48073C2F894300E4BD3F894300D4A49
S21448840043F08043C2F8943010E00A4BD3F89430D7
S214488410084A23F48073C2F89430064BD3F8943055
S214488420044A23F08043C2F8943000BF00BF04B02B
S214488430704700BF00C02E40FFFFEC0C82B0002300
S2144884400193294BD3F8943003F00203002B47D00E
S214488450254BD3F8943003F40073002B3ED0224BC0
S2144884605A682149214B13404B601F4BD3F8943030
S2144884701D4A23F40073C2F894301B4BD3F894304B
S214488480194A23F00203C2F8943000BF164BD3F8BB
S214488490943003F00103002BF8D0134BD3F89430F4
S2144884A0114A43F00403C2F894300F4BD3F8943083
S2144884B00D4A43F00043C2F894300B4BD3F894303F
S2144884C003F40073002B06D1074BD3F8943003F01F
S2144884D00103002B04D10223019301E001230193F9
S2144884E0019B184602B0704700C02E40000010F3AB
S2144884F086B00190009100230593009B00221A60E5
S21448850000238DF8133016E09DF81320019B53F88E
S21448851022300393284A9DF81330263352F82330E6
S214488520039A9A4202D00223059308E09DF8133036
S21448853001338DF813309DF81330082BE4D91E4BC1
S214488540D3F8BC3003F00102019B5B6A9A4201D023
S21448855002230593184BD3F8943003F40073002B8A
S2144885600DD0154B5B6803F08043002B01D03022BA
S21448857000E03122009B1A600223059317E00E4B59
S214488580D3F894300C4A23F02403C2F894300A4BAC
S214488590D3F89430084A23F00203C2F89430064BC6
S2144885A0D3F89430044A23F00043C2F89430059B2D
S2144885B0184606B0704700BF00C02E4082B0002361
S2144885C00093164B5B680093009B002B0DDA009ACD
S2144885D0134B13400093009B43F0404300930F4ACD
S2144885E0009B53600B23019314E0009B03F08043E9
S2144885F0002B0DD0009A0A4B13400093009B43F083
S21448860040430093054A009B53600C23019301E0C6
S21448861000230193019B184602B0704700C02E40C5
S214488620FFFFECCC84B00190019B0393144B4FF0B2
S214488630FF32C3F80021124BD3F89430104A43F067
S2144886400203C2F894300E4BD3F894300C4A23F009
S2144886500203C2F8943000BF094BD3F8943003F0B5
S2144886600103002BF8D0064BD3F89430044A23F085
S2144886700043C2F89430039B184604B0704700BFC6
S21448868000C02E4082B003468DF80730034A9DF856
S2144886900730137000BF02B0704700BF580E402026
S2144886A084B00190019BB3F1D85F07D3019B154A6C
S2144886B0934203D24FF4887303931FE0019BB3F1B0
S2144886C0805F09D3019B104A934205D8019B03F16A
S2144886D070435B0B039311E0019BB3F5800F0AD3FD
S2144886E0019BB3F5C00F06D2019BA3F580035B0B35
S2144886F01033039302E040F211130393039B18468A
S21448870004B070470020001BFFFF011000B585B07D
S2144887100190019BB3F1D85F06D3019B124A93425E
S21448872002D20923039319E0019BB3F1805F06D375
S214488730019B0E4A934202D8082303930EE0019BFE
S214488740B3F5800F08D3019BB3F5C00F04D2019848
S214488750FFF7DAF8039001E0FF230393039B1846DC
S21448876005B05DF804FB00BF0020001BFFFF0110AA
S21448877084B0019000230393019B082B11D0019BE2
S214488780082B12D8019B002B03D0019B012B04D049
S2144887900BE04FF48003039308E04FF4A0030393E1
S2144887A004E04FF08053039300E000BF039B184655
S2144887B004B0704700B585B001900B468DF803307D
S2144887C0019800F09DF80390039B042B12D0039B5E
S2144887D00A2B02D1002303930CE09DF80330194678
S2144887E00198FFF7C0F80390039B002B02D101982D
S2144887F000F005F8039B184605B05DF804FB00B585
S21448880085B0019009F008FC019B0F2B12D83A4B13
S214488810D3F88823394B1B6837491343C1F8883344
S214488820354BD3F84823354B1B6833491343C1F8B7
S21448883048335BE0019BB3F5887F12D12E4BD3F8C3
S21448884098232E4B1B682C491343C1F898332A4B60
S214488850D3F85823294B1B6827491343C1F8583384
S21448886044E0019B103B0393039BDB09029301986A
S214488870FFF760F80346002B1ED01F4A029BE633DC
S2144888809B0013445A681D4B1B681B491A43029B9E
S214488890E6339B000B445A60174A029BD6339B002C
S2144888A013445A68154B1B6813491A43029BD63320
S2144888B09B000B445A6019E00F4A029BE03352F87B
S2144888C023200E4B1B680C491A43029BE03341F8A1
S2144888D02320094A029BD03352F82320074B1B68B3
S2144888E005491A43029BD03341F8232009F0C0FBC0
S2144888F000BF05B05DF804FB008026409C0B402076
S21448890000B585B00190019BB3F5887F02D9042352
S21448891003930BE0019800F00EF80290029B002BA0
S21448892002D10923039301E00A230393039B1846C5
S21448893005B05DF804FB00B587B0019000230593A9
S2144889400198FEF789FF0346224A1360214B1B68AD
S214488950012202FA03F3204A1360019B0F2B07D823
S2144889601E4BD3F848231C4B1B68134005932BE03B
S214488970019BB3F5887F07D1184BD3F85823164B7D
S2144889801B68134005931FE0019B103B0493049B10
S214488990DB0903930198FEF7CDFF0346002B0AD068
S2144889A00E4A039BD6339B0013445A680A4B1B68EF
S2144889B01340059308E0094A039BD03352F8232016
S2144889C0054B1B6813400593059B184607B05DF892
S2144889D004FB00BF980B40209C0B4020008026409C
S2144889E000B585B001900B468DF803300198FFF727
S2144889F087FF0390039B042B16D0039B092B02D1B9
S214488A000023039310E09DF8033019460198FEF7BB
S214488A10AAFF0390039B002B06D109F04FFB019851
S214488A2000F007F809F076FB039B184605B05DF89A
S214488A3004FB00B585B00190019B0F2B0AD8244B48
S214488A40D3F84823234B1B68DB4321491340C1F81E
S214488A50483339E0019BB3F5887F0AD11C4BD3F8DD
S214488A6058231C4B1B68DB4319491340C1F858333D
S214488A702AE0019B103B0393039BDB090293019872
S214488A80FEF758FF0346002B10D0114A029BD633F8
S214488A909B0013445A680F4B1B68DB430C491A402B
S214488AA0029BD6339B000B445A600DE0084A029B53
S214488AB0D03352F82320074B1B68DB4304491A403F
S214488AC0029BD03341F8232000BF05B05DF804FB75
S214488AD0008026409C0B402000B585B00190FFF7EB
S214488AE083FBFFF72BF8FFF7F2F90390034A019B45
S214488AF01360039B184605B05DF804FB940B4020B2
S214488B0000B583B0FFF7FEF90190019B184603B005
S214488B105DF804FB82B00D4B5B6803F40043002B02
S214488B2002D1012301930DE0084B5B6803F45033F0
S214488B300093009BB3F5804F02D10023019301E0D8
S214488B4002230193019B184602B0704700C02E408E
S214488B5000B585B001900B468DF803300198FEF7B6
S214488B60AFFE0290029BB3F1FF3F02D1042303936A
S214488B7034E01D4B00221A600198FFF7F1F9039084
S214488B8009F0EEFA039B002B0DD1FFF7DDF99DF8AF
S214488B90033019460298FFF759FA0390039B032BB4
S214488BA001D1FFF771FA039B002B15D10F4B00221A
S214488BB0C3F800210D4B1B680C4A43F010031360A2
S214488BC00B4B1B78002B07D0FEF72AFE074B1B687B
S214488BD0064A43F00103136009F0EEFA039B184671
S214488BE005B05DF804FB00BFA80B402000C02E402F
S214488BF0580E402000B583B0FFF78CFF0190019BCC
S214488C00012B0FD009F0FEFA094B1B68084A23F0DF
S214488C1001031360064B1B68054A23F010031360D4
S214488C2009F01CFB019B184603B05DF804FB00BF27
S214488C3000C02E4000B587B00390029101928DF88F
S214488C400330039B03F07F03264A1360264B11220A
S214488C501A60264B00221A60019A02990398FFF779
S214488C60ADF9059009F020FB059B002B02D0059B2B
S214488C700C2B0ED1FFF768F99DF803301946039878
S214488C80FFF7E4F90346032B03D1FFF7FDF9032367
S214488C900593059B002B02D0059B0C2B1BD1039BF1
S214488CA09B0803F01F030493029A01990498FFF760
S214488CB007FA0F4B1B680E4A43F4807313600D4B3C
S214488CC01B78002B07D0FEF7ABFD094B1B68084AFC
S214488CD043F00103136009F013FB059B184607B0E1
S214488CE05DF804FBA00B4020A40B4020A80B4020B6
S214488CF000C02E40580E402000B583B0FFF70AFF4C
S214488D000190019B012B0FD009F020FB094B1B68F3
S214488D10084A23F001031360064B1B68054A23F4F0
S214488D208073136009F03EFB019B184603B05DF85C
S214488D3004FB00BF00C02E4000B58BB003900291E4
S214488D400192039B0993019B0893029B0793019901
S214488D500298FEF750FF03461F4A13601E4B1B68D7
S214488D60002B33D11C4B01221A601C4B00221A6080
S214488D7009F090FB0998FEF74FFF0590059B002BDE
S214488D800ED1FEF74DFD079A08990998FEF7F9FEA9
S214488D900690FEF753FD01210998FEF749FF059016
S214488DA0059B002B0FD1099A069B13440993089AF2
S214488DB0069B13440893079A069BD31A0793079B68
S214488DC0002BD7D100E000BF09F090FB024B1B6890
S214488DD018460BB05DF804FB5C0E4020A80B4020FC
S214488DE000B585B0039002910192029B002B03D1F7
S214488DF0104B04221A6016E00E4B01221A600E4BE6
S214488E0000221A6009F0F4FA019B002B05D0029A5A
S214488E1001990398FEF782FF03E002990398FEF74C
S214488E2047FF09F011FB034B1B68184605B05DF871
S214488E3004FB00BF5C0E4020A80B402000B587B05E
S214488E4003900291019200930398FFF7D7F90346DF
S214488E5083F00103DBB2002B02D00423059305E020
S214488E60294B00221A60FFF7E9FA0590059B002B6C
S214488E7045D109F057FC254B254AC3F89420234B87
S214488E80D3F89430002B02DB0223059335E09DF897
S214488E90203019460398FFF7D9F80590059B002B14
S214488EA027D11A4B4FF0FF32C3F80021029B012B03
S214488EB008D1164BD3F89430144A43F00403C2F84A
S214488EC0943007E0114BD3F89430104A23F004034B
S214488ED0C2F894300198FFF751FA0098FFF70EFA57
S214488EE00A4BD3F89430094A43F00203C2F8943048
S214488EF003E00598FFF796FB059009F03FFC059BB5
S214488F00184607B05DF804FBA80B402000C02E406A
S214488F109999F9F900B585B001900091002303931B
S214488F20019B002B02D0009B002B02D10423039305
S214488F302AE0009B00221A6009F0FEFA154BD3F887
S214488F40943003F00203002B1AD0124BD3F8943017
S214488F5003F00103002B10D00E4BD3F8943003F0E7
S214488F604003002B03D0009B17221A600AE00099A2
S214488F700198FFF7BDFA039004E00123039301E04C
S214488F800323039309F004FB039B184605B05DF8DA
S214488F9004FB00BF00C02E4000B583B000230193F9
S214488FA01D4BD3F8943003F00203002B2BD01A4BFA
S214488FB0D3F8943003F04103002B24D109F00EFB7C
S214488FC0154BD3F89430144A43F04003C2F8943013
S214488FD009F030FB00BF104BD3F8943003F0010380
S214488FE0002BF8D00C4BD3F8943003F04003002BFA
S214488FF006D0094BD3F8943003F00103002B05D173
S2144890000223019302E00223019300E000BF019B84
S214489010184603B05DF804FB00C02E4000B583B088
S21448902000230193134BD3F8943003F00203002B2C
S21448903019D009F025FB0F4BD3F8943003F04103C1
S214489040412B03D1FFF7F7F8019009E0094BD3F815
S214489050943003F40073002B02D0FFF715F9019003
S21448906009F03AFB01E002230193019B184603B03E
S2144890705DF804FB00C02E4000B587B0039002910F
S214489080019200930398FFF7B9F8034683F001036B
S214489090DBB2002B02D00423059305E0314B0022B7
S2144890A01A60FFF7CBF9059009F08EFB059B002B5D
S2144890B051D12D4B2D4AC3F894202B4BD3F89430DE
S2144890C0002B02DB0223059345E09DF82030194625
S2144890D00398FEF7BBFF0590059B002B37D1224B24
S2144890E04FF0FF32C3F800211F4BD3F894301E4A86
S2144890F043F00403C2F894300298FFF73FF91A4B3E
S214489100D3F89430184A43F02003C2F89430019BB1
S214489110012B08D1144BD3F89430134A43F010036C
S214489120C2F8943007E0104BD3F894300E4A23F038
S2144891301003C2F894300098FFF7E0F80A4BD3F8CB
S2144891409430094A43F00203C2F8943003E0059885
S214489150FFF768FA059009F063FB059B184607B0C9
S2144891605DF804FBA80B402000C02E409999F9F9F9
S21448917000B58DB00390029113468DF80730002352
S2144891800B9300230A93002305930023049300239C
S21448919009930398FFF7BAFA0890089BFF2B00F04C
S2144891A0B0805A4B00221A60FFF748F90B900B9B89
S2144891B0002B40F0A48009F059FB554B5B68099397
S2144891C0099A544B13400993099B43F0404309932B
S2144891D04F4A099B53604E4B4F4AC3F894204C4B1A
S2144891E0D3F89430002B02DB02230B9385E00898D3
S2144891F0FFF7BEFA0790039A079BD31A0693069B77
S21448920003F01F030A930A9BDB080A93404BD3F8E4
S21448921094303F4A43F48053C2F894303C4BD3F8DA
S21448922094303B4A43F08043C2F89430384A029B15
S2144892301B68C2F8D030029B0433354A1B68C2F814
S214489240D430334B0022C3F8D820314BD3F8D8203B
S2144892509DF807302E491343C1F8D8302C4B1A696D
S2144892602B492E4B13400B61294B1A690121089B49
S21448927001FA03F3DB04264913430B61244B1A69AE
S214489280069BDB085900264B0B40214913430B61CC
S2144892901F4BD3F8D82001210A9B01FA03F31B067B
S2144892A01B491343C1F8D830BFF34F8FBFF36F8FB6
S2144892B0039B1B680593039B04331B680493FFF7C3
S2144892C07DF90B90124B00221A61114BD3F894305B
S2144892D00F4A23F48053C2F894300D4BD3F8943099
S2144892E00B4A23F08043C2F89430094BD3F89430A5
S2144892F0074A23F00043C2F8943009F0E3FA059B86
S214489300049B0B9B18460DB05DF804FBA80B402049
S21448931000C02E40FFFFECCC9999F9F90100C0FE39
S214489320FEFF070000B58DB00390029113468DF8F6
S214489330073000230B9300230A930023059300234A
S2144893400493002309930398FFF7E0F90890089BD5
S214489350FF2B00F0B0805B4B00221A60FFF76EF8D8
S2144893600B900B9B002B40F0A68009F0D1FA564B89
S2144893705B680993099A554B13400993099B43F038
S21448938050430993504A099B53604F4B504AC3F881
S21448939094204D4BD3F89430002B02DB02230B93DA
S2144893A087E00898FFF7E4F90790039A079BD31AD3
S2144893B00693069B03F01F030A930A9BDB080A934F
S2144893C0414BD3F89430404A43F40053C2F89430A3
S2144893D03D4A029B1B68C2F8DC30029B04333A4A7B
S2144893E01B68C2F8E030384B0022C3F8E420364BFE
S2144893F0D3F8E4209DF8073033491343C1F8E430E6
S214489400314B1A693049334B13400B612E4B1A695E
S2144894100121089B01FA03F3DB042B4913430B6134
S214489420294B1A69069BDB0859002B4B0B402649EB
S21448943013430B61244BD3F8E42001210A9B01FA1D
S21448944003F31B0620491343C1F8E430BFF34F8F9C
S214489450BFF36F8F039B1B680593039B04331B68FE
S2144894600493194B5B680993099B03F08053002BC0
S2144894700CD0099A154B13400993099B43F0504367
S2144894800993114A099B53600B230B930E4B0022FA
S2144894901A610D4BD3F894300B4A23F40053C2F8A4
S2144894A09430094BD3F89430074A23F00043C2F867
S2144894B0943009F059FA059B049B0B9B18460DB04F
S2144894C05DF804FBA80B402000C02E40FFFFECDCF4
S2144894D09999F9F90100C0FEFEFF070000B589B06A
S2144894E001900091022307930023029300230693DA
S2144894F00198FFF70BF90590059BFF2B00F08E802F
S214489500494B00221A60FEF799FF0790079B002BED
S21448951040F0848009F04EFA444B5B680693069AFE
S214489520434B13400693069B43F0005306933F4A2B
S214489530069B53603D4B3F4AC3F894203B4BD3F8B9
S2144895409430002B02DB0223079365E00598FFF76B
S2144895500FF90490019A049BD31A0393334BD3F81C
S2144895609430324A43F48043C2F894302F4A009BE2
S2144895701B68C2F8E830009B04331B682B4AC3F3C9
S2144895801303C2F8EC30294B1A6928492A4B134072
S2144895900B61264B1A690121059B01FA03F3DB048C
S2144895A0224913430B61214B1A69039BDB08590078
S2144895B0224B0B401D4913430B61BFF34F8FBFF33C
S2144895C06F8F019B1B680293184B5B680693069B3C
S2144895D003F00053002B0CD000230793069A144B35
S2144895E013400693069B43F0005306930F4A069B88
S2144895F053600E4B00221A610C4BD3F894300B4A3A
S21448960023F48043C2F89430084BD3F89430074A82
S21448961023F00043C2F8943009F0F8F9029B079B00
S214489620184609B05DF804FBA80B402000C02E4041
S214489630FFFFEC2C9999F9F90100C0FEFEFF0700E0
S21448964084B04FF0FF330393364B1B690193019B5D
S2144896505B08C3F311030293029BDB000293324B71
S2144896601B68112B04D1314B1B68029A1344029392
S214489670019B03F0FC730093019B002B08DA019BC7
S21448968003F40023002B48D04FF0D853039344E00C
S214489690009BB3F1807F3BD0009BB3F1807F3BD8E3
S2144896A0009BB3F5000F2FD0009BB3F5000F33D8BF
S2144896B0009BB3F5800F23D0009BB3F5800F2BD8C3
S2144896C0009BB3F5001F16D0009BB3F5001F23D8A8
S2144896D0009BB3F5002F04D0009BB3F5801F05D040
S2144896E01AE0029B03F58003039316E0029B03F5FA
S2144896F0A003039311E0029B03F1805303930CE00D
S214489700029B013B039308E0029B013B039304E062
S214489710029B013B039300E000BF039B184604B03E
S214489720704700BF00C02E40A40B4020A00B40202E
S214489730024B0B221A6000BF704700BF5C0E4020E9
S21448974082B00190009100BF02B0704700B585B066
S2144897500190244B1B680221184603F099FE00230B
S2144897608DF80F3017E0019B5A6B9DF80F301B01A0
S21448977013441968019B5A6B9DF80F301B0113441C
S2144897800833D3E90023084601F0DBFB9DF80F3089
S21448979001338DF80F30019BDB7C9DF80F209A42F1
S2144897A0E1D300F023F801238DF80F300EE0019B3B
S2144897B05B6C9DF80F2053F832300B499DF80F200C
S2144897C0CA549DF80F3001338DF80F30019BDB7D6E
S2144897D09DF80F209A42EAD300BF00BF05B05DF857
S2144897E004FB00BFB40B4020B80B402008B5234B01
S2144897F01B7883F00103DBB2002B3DD01F4B0122C0
S2144898001A701F4B5B680021002098471C4B9B68CA
S214489810572098471B4B1B68002098471A4B1B68D5
S21448982000209847194B1B6800209847184B5B68E0
S21448983000209847164B9B6800209847154B1B6896
S21448984000209847134B5B68002100209847124B2E
S2144898501B6800209847114B5B68002098470F4BC1
S2144898609B68002098470E4B5B68002098470D4B36
S2144898701B6800210020984700BF08BDAC0B40205D
S21448988088684900E8674900FC6749000C68490051
S2144898903C6849004868490058684900A868490033
S2144898A0F8684900F068490000B585B00190019B0A
S2144898B0DB7B03931FE0019B5B6A039A013A53F8EC
S2144898C0322057491346DB0013440B4401331B78B8
S2144898D01A46544B9B5C0293534A029B52F83330C9
S2144898E0019A516A039A013AD2000A4410469847A8
S2144898F0039B013B0393039B002BDCD1019B9B7C82
S214489900039324E0019B1A6B039B013B1B01134402
S2144899101A6843491346DB0013440B4401331B784B
S2144899201A46424B9B5C02934149029A13465B0097
S21448993013449B000B441B68019A116B039A013A27
S21448994012010A4410469847039B013B0393039B26
S214489950002BD7D1019B9B7B03932AE0019B196A76
S214489960039B5A1E13469B001344DB000B441A689D
S2144899702B491346DB0013440B4401331B781A4625
S2144899802C4B9B5C02932C49029A13469B0013442B
S2144899909B000B441968019B186A039B5A1E134682
S2144899A09B001344DB00034418468847039B013B4F
S2144899B00393039B002BD1D1019B5B7B039327E04A
S2144899C0019BD969039B5A1E13469B0013449B0070
S2144899D00B441A6812491346DB0013440B44013300
S2144899E01B781A46154B9B5C0293154A029B1B0133
S2144899F013441968019BD869039B5A1E13469B005B
S214489A0013449B00034418468847039B013B039333
S214489A10039B002BD4D100BF00BF05B05DF804FB04
S214489A204C59490028594900F868490010594900D6
S214489A303C6849001C594900A8684900EC58490048
S214489A400C68490000B585B001900123039301983E
S214489A5000F018F80A4B1B78002B0AD000F058FB89
S214489A600290029B002B06D100F0D6FB00230393FE
S214489A7001E000230393039B184605B05DF804FBFA
S214489A80B00B402010B584B00190984A019B1360F3
S214489A900121019803F0FCFC944B1B68002B2ED048
S214489AA00023039325E0019B196C039A1346DB00B9
S214489AB09B1A9B000B441A688D491346DB001344D7
S214489AC00B4401331B781A468A4B9B5C02938A4A9E
S214489AD0029B1B0113441968019B186C039A134692
S214489AE0DB009B1A9B00034418468847039B0133B8
S214489AF00393019B9B7D1A46039B9342D3D30198BD
S214489B00FFF7D2FE0023039328E0019B9969039A46
S214489B1013465B0013449B000B441A68744913466B
S214489B20DB0013440B4401331B781A46734B9B5C8B
S214489B3002937349029A13465B0013449B000B44F6
S214489B401968019B9869039A13465B0013449B0067
S214489B50034418468847039B01330393019B1B7BAA
S214489B601A46039B9342D0D30198FFF7EFFD002394
S214489B70039326E0019BD969039A13469B00134436
S214489B809B000B441A685A491346DB0013440B449F
S214489B9001331B781A465B4B9B5C02935A4A029BDE
S214489BA01B01134404331968019BD869039A13466A
S214489BB09B0013449B00034418468847039B013385
S214489BC00393019B5B7B1A46039B9342D2D30023A5
S214489BD0039325E0019BD96B039A13465B00134415
